{
	"TransparentUpgradeableProxy.sol": {
		"BuggyProxy": {
			"abi": [
				{
					"inputs": [],
					"stateMutability": "nonpayable",
					"type": "constructor"
				},
				{
					"stateMutability": "payable",
					"type": "fallback"
				},
				{
					"inputs": [],
					"name": "admin",
					"outputs": [
						{
							"internalType": "address",
							"name": "",
							"type": "address"
						}
					],
					"stateMutability": "view",
					"type": "function"
				},
				{
					"inputs": [],
					"name": "implementation",
					"outputs": [
						{
							"internalType": "address",
							"name": "",
							"type": "address"
						}
					],
					"stateMutability": "view",
					"type": "function"
				},
				{
					"inputs": [
						{
							"internalType": "address",
							"name": "_implementation",
							"type": "address"
						}
					],
					"name": "upgradeTo",
					"outputs": [],
					"stateMutability": "nonpayable",
					"type": "function"
				},
				{
					"stateMutability": "payable",
					"type": "receive"
				}
			],
			"devdoc": {
				"kind": "dev",
				"methods": {},
				"version": 1
			},
			"evm": {
				"assembly": "    /* \"TransparentUpgradeableProxy.sol\":552:1142  contract BuggyProxy {... */\n  mstore(0x40, 0x80)\n    /* \"TransparentUpgradeableProxy.sol\":640:689  constructor() {... */\n  callvalue\n  dup1\n  iszero\n  tag_1\n  jumpi\n  0x00\n  dup1\n  revert\ntag_1:\n  pop\n    /* \"TransparentUpgradeableProxy.sol\":672:682  msg.sender */\n  caller\n    /* \"TransparentUpgradeableProxy.sol\":664:669  admin */\n  0x01\n  0x00\n    /* \"TransparentUpgradeableProxy.sol\":664:682  admin = msg.sender */\n  0x0100\n  exp\n  dup2\n  sload\n  dup2\n  0xffffffffffffffffffffffffffffffffffffffff\n  mul\n  not\n  and\n  swap1\n  dup4\n  0xffffffffffffffffffffffffffffffffffffffff\n  and\n  mul\n  or\n  swap1\n  sstore\n  pop\n    /* \"TransparentUpgradeableProxy.sol\":552:1142  contract BuggyProxy {... */\n  dataSize(sub_0)\n  dup1\n  dataOffset(sub_0)\n  0x00\n  codecopy\n  0x00\n  return\nstop\n\nsub_0: assembly {\n        /* \"TransparentUpgradeableProxy.sol\":552:1142  contract BuggyProxy {... */\n      mstore(0x40, 0x80)\n      jumpi(tag_1, lt(calldatasize, 0x04))\n      shr(0xe0, calldataload(0x00))\n      dup1\n      0x3659cfe6\n      eq\n      tag_3\n      jumpi\n      dup1\n      0x5c60da1b\n      eq\n      tag_4\n      jumpi\n      dup1\n      0xf851a440\n      eq\n      tag_5\n      jumpi\n      jump(tag_2)\n    tag_1:\n      jumpi(tag_2, calldatasize)\n        /* \"TransparentUpgradeableProxy.sol\":958:969  _delegate() */\n      tag_8\n        /* \"TransparentUpgradeableProxy.sol\":958:967  _delegate */\n      tag_9\n        /* \"TransparentUpgradeableProxy.sol\":958:969  _delegate() */\n      jump\t// in\n    tag_8:\n        /* \"TransparentUpgradeableProxy.sol\":552:1142  contract BuggyProxy {... */\n      stop\n    tag_2:\n        /* \"TransparentUpgradeableProxy.sol\":897:908  _delegate() */\n      tag_12\n        /* \"TransparentUpgradeableProxy.sol\":897:906  _delegate */\n      tag_9\n        /* \"TransparentUpgradeableProxy.sol\":897:908  _delegate() */\n      jump\t// in\n    tag_12:\n        /* \"TransparentUpgradeableProxy.sol\":552:1142  contract BuggyProxy {... */\n      stop\n        /* \"TransparentUpgradeableProxy.sol\":982:1140  function upgradeTo(address _implementation) external {... */\n    tag_3:\n      callvalue\n      dup1\n      iszero\n      tag_13\n      jumpi\n      0x00\n      dup1\n      revert\n    tag_13:\n      pop\n      tag_14\n      0x04\n      dup1\n      calldatasize\n      sub\n      dup2\n      add\n      swap1\n      tag_15\n      swap2\n      swap1\n      tag_16\n      jump\t// in\n    tag_15:\n      tag_17\n      jump\t// in\n    tag_14:\n      stop\n        /* \"TransparentUpgradeableProxy.sol\":578:607  address public implementation */\n    tag_4:\n      callvalue\n      dup1\n      iszero\n      tag_18\n      jumpi\n      0x00\n      dup1\n      revert\n    tag_18:\n      pop\n      tag_19\n      tag_20\n      jump\t// in\n    tag_19:\n      mload(0x40)\n      tag_21\n      swap2\n      swap1\n      tag_22\n      jump\t// in\n    tag_21:\n      mload(0x40)\n      dup1\n      swap2\n      sub\n      swap1\n      return\n        /* \"TransparentUpgradeableProxy.sol\":613:633  address public admin */\n    tag_5:\n      callvalue\n      dup1\n      iszero\n      tag_23\n      jumpi\n      0x00\n      dup1\n      revert\n    tag_23:\n      pop\n      tag_24\n      tag_25\n      jump\t// in\n    tag_24:\n      mload(0x40)\n      tag_26\n      swap2\n      swap1\n      tag_22\n      jump\t// in\n    tag_26:\n      mload(0x40)\n      dup1\n      swap2\n      sub\n      swap1\n      return\n        /* \"TransparentUpgradeableProxy.sol\":695:853  function _delegate() private {... */\n    tag_9:\n        /* \"TransparentUpgradeableProxy.sol\":735:742  bool ok */\n      0x00\n        /* \"TransparentUpgradeableProxy.sol\":744:760  bytes memory res */\n      dup1\n        /* \"TransparentUpgradeableProxy.sol\":765:779  implementation */\n      0x00\n      dup1\n      sload\n      swap1\n      0x0100\n      exp\n      swap1\n      div\n      0xffffffffffffffffffffffffffffffffffffffff\n      and\n        /* \"TransparentUpgradeableProxy.sol\":765:792  implementation.delegatecall */\n      0xffffffffffffffffffffffffffffffffffffffff\n      and\n        /* \"TransparentUpgradeableProxy.sol\":793:801  msg.data */\n      0x00\n      calldatasize\n        /* \"TransparentUpgradeableProxy.sol\":765:802  implementation.delegatecall(msg.data) */\n      mload(0x40)\n      tag_28\n      swap3\n      swap2\n      swap1\n      tag_29\n      jump\t// in\n    tag_28:\n      0x00\n      mload(0x40)\n      dup1\n      dup4\n      sub\n      dup2\n      dup6\n      gas\n      delegatecall\n      swap2\n      pop\n      pop\n      returndatasize\n      dup1\n      0x00\n      dup2\n      eq\n      tag_32\n      jumpi\n      mload(0x40)\n      swap2\n      pop\n      and(add(returndatasize, 0x3f), not(0x1f))\n      dup3\n      add\n      0x40\n      mstore\n      returndatasize\n      dup3\n      mstore\n      returndatasize\n      0x00\n      0x20\n      dup5\n      add\n      returndatacopy\n      jump(tag_31)\n    tag_32:\n      0x60\n      swap2\n      pop\n    tag_31:\n      pop\n        /* \"TransparentUpgradeableProxy.sol\":734:802  (bool ok, bytes memory res ) = implementation.delegatecall(msg.data) */\n      swap2\n      pop\n      swap2\n      pop\n        /* \"TransparentUpgradeableProxy.sol\":820:822  ok */\n      dup2\n        /* \"TransparentUpgradeableProxy.sol\":812:846  require(ok, \"delegatecall failed\") */\n      tag_33\n      jumpi\n      mload(0x40)\n      0x08c379a000000000000000000000000000000000000000000000000000000000\n      dup2\n      mstore\n      0x04\n      add\n      tag_34\n      swap1\n      tag_35\n      jump\t// in\n    tag_34:\n      mload(0x40)\n      dup1\n      swap2\n      sub\n      swap1\n      revert\n    tag_33:\n        /* \"TransparentUpgradeableProxy.sol\":724:853  {... */\n      pop\n      pop\n        /* \"TransparentUpgradeableProxy.sol\":695:853  function _delegate() private {... */\n      jump\t// out\n        /* \"TransparentUpgradeableProxy.sol\":982:1140  function upgradeTo(address _implementation) external {... */\n    tag_17:\n        /* \"TransparentUpgradeableProxy.sol\":1067:1072  admin */\n      0x01\n      0x00\n      swap1\n      sload\n      swap1\n      0x0100\n      exp\n      swap1\n      div\n      0xffffffffffffffffffffffffffffffffffffffff\n      and\n        /* \"TransparentUpgradeableProxy.sol\":1053:1072  msg.sender == admin */\n      0xffffffffffffffffffffffffffffffffffffffff\n      and\n        /* \"TransparentUpgradeableProxy.sol\":1053:1063  msg.sender */\n      caller\n        /* \"TransparentUpgradeableProxy.sol\":1053:1072  msg.sender == admin */\n      0xffffffffffffffffffffffffffffffffffffffff\n      and\n      eq\n        /* \"TransparentUpgradeableProxy.sol\":1045:1091  require(msg.sender == admin, \"not authorised\") */\n      tag_37\n      jumpi\n      mload(0x40)\n      0x08c379a000000000000000000000000000000000000000000000000000000000\n      dup2\n      mstore\n      0x04\n      add\n      tag_38\n      swap1\n      tag_39\n      jump\t// in\n    tag_38:\n      mload(0x40)\n      dup1\n      swap2\n      sub\n      swap1\n      revert\n    tag_37:\n        /* \"TransparentUpgradeableProxy.sol\":1118:1133  _implementation */\n      dup1\n        /* \"TransparentUpgradeableProxy.sol\":1101:1115  implementation */\n      0x00\n      dup1\n        /* \"TransparentUpgradeableProxy.sol\":1101:1133  implementation = _implementation */\n      0x0100\n      exp\n      dup2\n      sload\n      dup2\n      0xffffffffffffffffffffffffffffffffffffffff\n      mul\n      not\n      and\n      swap1\n      dup4\n      0xffffffffffffffffffffffffffffffffffffffff\n      and\n      mul\n      or\n      swap1\n      sstore\n      pop\n        /* \"TransparentUpgradeableProxy.sol\":982:1140  function upgradeTo(address _implementation) external {... */\n      pop\n      jump\t// out\n        /* \"TransparentUpgradeableProxy.sol\":578:607  address public implementation */\n    tag_20:\n      0x00\n      dup1\n      sload\n      swap1\n      0x0100\n      exp\n      swap1\n      div\n      0xffffffffffffffffffffffffffffffffffffffff\n      and\n      dup2\n      jump\t// out\n        /* \"TransparentUpgradeableProxy.sol\":613:633  address public admin */\n    tag_25:\n      0x01\n      0x00\n      swap1\n      sload\n      swap1\n      0x0100\n      exp\n      swap1\n      div\n      0xffffffffffffffffffffffffffffffffffffffff\n      and\n      dup2\n      jump\t// out\n        /* \"#utility.yul\":88:205   */\n    tag_41:\n        /* \"#utility.yul\":197:198   */\n      0x00\n        /* \"#utility.yul\":194:195   */\n      dup1\n        /* \"#utility.yul\":187:199   */\n      revert\n        /* \"#utility.yul\":334:460   */\n    tag_43:\n        /* \"#utility.yul\":371:378   */\n      0x00\n        /* \"#utility.yul\":411:453   */\n      0xffffffffffffffffffffffffffffffffffffffff\n        /* \"#utility.yul\":404:409   */\n      dup3\n        /* \"#utility.yul\":400:454   */\n      and\n        /* \"#utility.yul\":389:454   */\n      swap1\n      pop\n        /* \"#utility.yul\":334:460   */\n      swap2\n      swap1\n      pop\n      jump\t// out\n        /* \"#utility.yul\":466:562   */\n    tag_44:\n        /* \"#utility.yul\":503:510   */\n      0x00\n        /* \"#utility.yul\":532:556   */\n      tag_62\n        /* \"#utility.yul\":550:555   */\n      dup3\n        /* \"#utility.yul\":532:556   */\n      tag_43\n      jump\t// in\n    tag_62:\n        /* \"#utility.yul\":521:556   */\n      swap1\n      pop\n        /* \"#utility.yul\":466:562   */\n      swap2\n      swap1\n      pop\n      jump\t// out\n        /* \"#utility.yul\":568:690   */\n    tag_45:\n        /* \"#utility.yul\":641:665   */\n      tag_64\n        /* \"#utility.yul\":659:664   */\n      dup2\n        /* \"#utility.yul\":641:665   */\n      tag_44\n      jump\t// in\n    tag_64:\n        /* \"#utility.yul\":634:639   */\n      dup2\n        /* \"#utility.yul\":631:666   */\n      eq\n        /* \"#utility.yul\":621:684   */\n      tag_65\n      jumpi\n        /* \"#utility.yul\":680:681   */\n      0x00\n        /* \"#utility.yul\":677:678   */\n      dup1\n        /* \"#utility.yul\":670:682   */\n      revert\n        /* \"#utility.yul\":621:684   */\n    tag_65:\n        /* \"#utility.yul\":568:690   */\n      pop\n      jump\t// out\n        /* \"#utility.yul\":696:835   */\n    tag_46:\n        /* \"#utility.yul\":742:747   */\n      0x00\n        /* \"#utility.yul\":780:786   */\n      dup2\n        /* \"#utility.yul\":767:787   */\n      calldataload\n        /* \"#utility.yul\":758:787   */\n      swap1\n      pop\n        /* \"#utility.yul\":796:829   */\n      tag_67\n        /* \"#utility.yul\":823:828   */\n      dup2\n        /* \"#utility.yul\":796:829   */\n      tag_45\n      jump\t// in\n    tag_67:\n        /* \"#utility.yul\":696:835   */\n      swap3\n      swap2\n      pop\n      pop\n      jump\t// out\n        /* \"#utility.yul\":841:1170   */\n    tag_16:\n        /* \"#utility.yul\":900:906   */\n      0x00\n        /* \"#utility.yul\":949:951   */\n      0x20\n        /* \"#utility.yul\":937:946   */\n      dup3\n        /* \"#utility.yul\":928:935   */\n      dup5\n        /* \"#utility.yul\":924:947   */\n      sub\n        /* \"#utility.yul\":920:952   */\n      slt\n        /* \"#utility.yul\":917:1036   */\n      iszero\n      tag_69\n      jumpi\n        /* \"#utility.yul\":955:1034   */\n      tag_70\n      tag_41\n      jump\t// in\n    tag_70:\n        /* \"#utility.yul\":917:1036   */\n    tag_69:\n        /* \"#utility.yul\":1075:1076   */\n      0x00\n        /* \"#utility.yul\":1100:1153   */\n      tag_71\n        /* \"#utility.yul\":1145:1152   */\n      dup5\n        /* \"#utility.yul\":1136:1142   */\n      dup3\n        /* \"#utility.yul\":1125:1134   */\n      dup6\n        /* \"#utility.yul\":1121:1143   */\n      add\n        /* \"#utility.yul\":1100:1153   */\n      tag_46\n      jump\t// in\n    tag_71:\n        /* \"#utility.yul\":1090:1153   */\n      swap2\n      pop\n        /* \"#utility.yul\":1046:1163   */\n      pop\n        /* \"#utility.yul\":841:1170   */\n      swap3\n      swap2\n      pop\n      pop\n      jump\t// out\n        /* \"#utility.yul\":1176:1294   */\n    tag_47:\n        /* \"#utility.yul\":1263:1287   */\n      tag_73\n        /* \"#utility.yul\":1281:1286   */\n      dup2\n        /* \"#utility.yul\":1263:1287   */\n      tag_44\n      jump\t// in\n    tag_73:\n        /* \"#utility.yul\":1258:1261   */\n      dup3\n        /* \"#utility.yul\":1251:1288   */\n      mstore\n        /* \"#utility.yul\":1176:1294   */\n      pop\n      pop\n      jump\t// out\n        /* \"#utility.yul\":1300:1522   */\n    tag_22:\n        /* \"#utility.yul\":1393:1397   */\n      0x00\n        /* \"#utility.yul\":1431:1433   */\n      0x20\n        /* \"#utility.yul\":1420:1429   */\n      dup3\n        /* \"#utility.yul\":1416:1434   */\n      add\n        /* \"#utility.yul\":1408:1434   */\n      swap1\n      pop\n        /* \"#utility.yul\":1444:1515   */\n      tag_75\n        /* \"#utility.yul\":1512:1513   */\n      0x00\n        /* \"#utility.yul\":1501:1510   */\n      dup4\n        /* \"#utility.yul\":1497:1514   */\n      add\n        /* \"#utility.yul\":1488:1494   */\n      dup5\n        /* \"#utility.yul\":1444:1515   */\n      tag_47\n      jump\t// in\n    tag_75:\n        /* \"#utility.yul\":1300:1522   */\n      swap3\n      swap2\n      pop\n      pop\n      jump\t// out\n        /* \"#utility.yul\":1528:1675   */\n    tag_48:\n        /* \"#utility.yul\":1629:1640   */\n      0x00\n        /* \"#utility.yul\":1666:1669   */\n      dup2\n        /* \"#utility.yul\":1651:1669   */\n      swap1\n      pop\n        /* \"#utility.yul\":1528:1675   */\n      swap3\n      swap2\n      pop\n      pop\n      jump\t// out\n        /* \"#utility.yul\":1681:1829   */\n    tag_49:\n        /* \"#utility.yul\":1779:1785   */\n      dup3\n        /* \"#utility.yul\":1774:1777   */\n      dup2\n        /* \"#utility.yul\":1769:1772   */\n      dup4\n        /* \"#utility.yul\":1756:1786   */\n      calldatacopy\n        /* \"#utility.yul\":1820:1821   */\n      0x00\n        /* \"#utility.yul\":1811:1817   */\n      dup4\n        /* \"#utility.yul\":1806:1809   */\n      dup4\n        /* \"#utility.yul\":1802:1818   */\n      add\n        /* \"#utility.yul\":1795:1822   */\n      mstore\n        /* \"#utility.yul\":1681:1829   */\n      pop\n      pop\n      pop\n      jump\t// out\n        /* \"#utility.yul\":1857:2184   */\n    tag_50:\n        /* \"#utility.yul\":1971:1974   */\n      0x00\n        /* \"#utility.yul\":1992:2080   */\n      tag_79\n        /* \"#utility.yul\":2073:2079   */\n      dup4\n        /* \"#utility.yul\":2068:2071   */\n      dup6\n        /* \"#utility.yul\":1992:2080   */\n      tag_48\n      jump\t// in\n    tag_79:\n        /* \"#utility.yul\":1985:2080   */\n      swap4\n      pop\n        /* \"#utility.yul\":2090:2146   */\n      tag_80\n        /* \"#utility.yul\":2139:2145   */\n      dup4\n        /* \"#utility.yul\":2134:2137   */\n      dup6\n        /* \"#utility.yul\":2127:2132   */\n      dup5\n        /* \"#utility.yul\":2090:2146   */\n      tag_49\n      jump\t// in\n    tag_80:\n        /* \"#utility.yul\":2171:2177   */\n      dup3\n        /* \"#utility.yul\":2166:2169   */\n      dup5\n        /* \"#utility.yul\":2162:2178   */\n      add\n        /* \"#utility.yul\":2155:2178   */\n      swap1\n      pop\n        /* \"#utility.yul\":1857:2184   */\n      swap4\n      swap3\n      pop\n      pop\n      pop\n      jump\t// out\n        /* \"#utility.yul\":2190:2481   */\n    tag_29:\n        /* \"#utility.yul\":2330:2333   */\n      0x00\n        /* \"#utility.yul\":2352:2455   */\n      tag_82\n        /* \"#utility.yul\":2451:2454   */\n      dup3\n        /* \"#utility.yul\":2442:2448   */\n      dup5\n        /* \"#utility.yul\":2434:2440   */\n      dup7\n        /* \"#utility.yul\":2352:2455   */\n      tag_50\n      jump\t// in\n    tag_82:\n        /* \"#utility.yul\":2345:2455   */\n      swap2\n      pop\n        /* \"#utility.yul\":2472:2475   */\n      dup2\n        /* \"#utility.yul\":2465:2475   */\n      swap1\n      pop\n        /* \"#utility.yul\":2190:2481   */\n      swap4\n      swap3\n      pop\n      pop\n      pop\n      jump\t// out\n        /* \"#utility.yul\":2487:2656   */\n    tag_51:\n        /* \"#utility.yul\":2571:2582   */\n      0x00\n        /* \"#utility.yul\":2605:2611   */\n      dup3\n        /* \"#utility.yul\":2600:2603   */\n      dup3\n        /* \"#utility.yul\":2593:2612   */\n      mstore\n        /* \"#utility.yul\":2645:2649   */\n      0x20\n        /* \"#utility.yul\":2640:2643   */\n      dup3\n        /* \"#utility.yul\":2636:2650   */\n      add\n        /* \"#utility.yul\":2621:2650   */\n      swap1\n      pop\n        /* \"#utility.yul\":2487:2656   */\n      swap3\n      swap2\n      pop\n      pop\n      jump\t// out\n        /* \"#utility.yul\":2662:2831   */\n    tag_52:\n        /* \"#utility.yul\":2802:2823   */\n      0x64656c656761746563616c6c206661696c656400000000000000000000000000\n        /* \"#utility.yul\":2798:2799   */\n      0x00\n        /* \"#utility.yul\":2790:2796   */\n      dup3\n        /* \"#utility.yul\":2786:2800   */\n      add\n        /* \"#utility.yul\":2779:2824   */\n      mstore\n        /* \"#utility.yul\":2662:2831   */\n      pop\n      jump\t// out\n        /* \"#utility.yul\":2837:3203   */\n    tag_53:\n        /* \"#utility.yul\":2979:2982   */\n      0x00\n        /* \"#utility.yul\":3000:3067   */\n      tag_86\n        /* \"#utility.yul\":3064:3066   */\n      0x13\n        /* \"#utility.yul\":3059:3062   */\n      dup4\n        /* \"#utility.yul\":3000:3067   */\n      tag_51\n      jump\t// in\n    tag_86:\n        /* \"#utility.yul\":2993:3067   */\n      swap2\n      pop\n        /* \"#utility.yul\":3076:3169   */\n      tag_87\n        /* \"#utility.yul\":3165:3168   */\n      dup3\n        /* \"#utility.yul\":3076:3169   */\n      tag_52\n      jump\t// in\n    tag_87:\n        /* \"#utility.yul\":3194:3196   */\n      0x20\n        /* \"#utility.yul\":3189:3192   */\n      dup3\n        /* \"#utility.yul\":3185:3197   */\n      add\n        /* \"#utility.yul\":3178:3197   */\n      swap1\n      pop\n        /* \"#utility.yul\":2837:3203   */\n      swap2\n      swap1\n      pop\n      jump\t// out\n        /* \"#utility.yul\":3209:3628   */\n    tag_35:\n        /* \"#utility.yul\":3375:3379   */\n      0x00\n        /* \"#utility.yul\":3413:3415   */\n      0x20\n        /* \"#utility.yul\":3402:3411   */\n      dup3\n        /* \"#utility.yul\":3398:3416   */\n      add\n        /* \"#utility.yul\":3390:3416   */\n      swap1\n      pop\n        /* \"#utility.yul\":3462:3471   */\n      dup2\n        /* \"#utility.yul\":3456:3460   */\n      dup2\n        /* \"#utility.yul\":3452:3472   */\n      sub\n        /* \"#utility.yul\":3448:3449   */\n      0x00\n        /* \"#utility.yul\":3437:3446   */\n      dup4\n        /* \"#utility.yul\":3433:3450   */\n      add\n        /* \"#utility.yul\":3426:3473   */\n      mstore\n        /* \"#utility.yul\":3490:3621   */\n      tag_89\n        /* \"#utility.yul\":3616:3620   */\n      dup2\n        /* \"#utility.yul\":3490:3621   */\n      tag_53\n      jump\t// in\n    tag_89:\n        /* \"#utility.yul\":3482:3621   */\n      swap1\n      pop\n        /* \"#utility.yul\":3209:3628   */\n      swap2\n      swap1\n      pop\n      jump\t// out\n        /* \"#utility.yul\":3634:3798   */\n    tag_54:\n        /* \"#utility.yul\":3774:3790   */\n      0x6e6f7420617574686f7269736564000000000000000000000000000000000000\n        /* \"#utility.yul\":3770:3771   */\n      0x00\n        /* \"#utility.yul\":3762:3768   */\n      dup3\n        /* \"#utility.yul\":3758:3772   */\n      add\n        /* \"#utility.yul\":3751:3791   */\n      mstore\n        /* \"#utility.yul\":3634:3798   */\n      pop\n      jump\t// out\n        /* \"#utility.yul\":3804:4170   */\n    tag_55:\n        /* \"#utility.yul\":3946:3949   */\n      0x00\n        /* \"#utility.yul\":3967:4034   */\n      tag_92\n        /* \"#utility.yul\":4031:4033   */\n      0x0e\n        /* \"#utility.yul\":4026:4029   */\n      dup4\n        /* \"#utility.yul\":3967:4034   */\n      tag_51\n      jump\t// in\n    tag_92:\n        /* \"#utility.yul\":3960:4034   */\n      swap2\n      pop\n        /* \"#utility.yul\":4043:4136   */\n      tag_93\n        /* \"#utility.yul\":4132:4135   */\n      dup3\n        /* \"#utility.yul\":4043:4136   */\n      tag_54\n      jump\t// in\n    tag_93:\n        /* \"#utility.yul\":4161:4163   */\n      0x20\n        /* \"#utility.yul\":4156:4159   */\n      dup3\n        /* \"#utility.yul\":4152:4164   */\n      add\n        /* \"#utility.yul\":4145:4164   */\n      swap1\n      pop\n        /* \"#utility.yul\":3804:4170   */\n      swap2\n      swap1\n      pop\n      jump\t// out\n        /* \"#utility.yul\":4176:4595   */\n    tag_39:\n        /* \"#utility.yul\":4342:4346   */\n      0x00\n        /* \"#utility.yul\":4380:4382   */\n      0x20\n        /* \"#utility.yul\":4369:4378   */\n      dup3\n        /* \"#utility.yul\":4365:4383   */\n      add\n        /* \"#utility.yul\":4357:4383   */\n      swap1\n      pop\n        /* \"#utility.yul\":4429:4438   */\n      dup2\n        /* \"#utility.yul\":4423:4427   */\n      dup2\n        /* \"#utility.yul\":4419:4439   */\n      sub\n        /* \"#utility.yul\":4415:4416   */\n      0x00\n        /* \"#utility.yul\":4404:4413   */\n      dup4\n        /* \"#utility.yul\":4400:4417   */\n      add\n        /* \"#utility.yul\":4393:4440   */\n      mstore\n        /* \"#utility.yul\":4457:4588   */\n      tag_95\n        /* \"#utility.yul\":4583:4587   */\n      dup2\n        /* \"#utility.yul\":4457:4588   */\n      tag_55\n      jump\t// in\n    tag_95:\n        /* \"#utility.yul\":4449:4588   */\n      swap1\n      pop\n        /* \"#utility.yul\":4176:4595   */\n      swap2\n      swap1\n      pop\n      jump\t// out\n\n    auxdata: 0xa264697066735822122000b556bc4d19248ebf05dd7b4125d087ca2c7b4b876900c76c6ceee3f22953c364736f6c634300081a0033\n}\n",
				"bytecode": {
					"linkReferences": {},
					"object": "6080604052348015600e575f80fd5b503360015f6101000a81548173ffffffffffffffffffffffffffffffffffffffff021916908373ffffffffffffffffffffffffffffffffffffffff1602179055506104ce8061005c5f395ff3fe608060405260043610610037575f3560e01c80633659cfe6146100505780635c60da1b14610078578063f851a440146100a257610046565b36610046576100446100cc565b005b61004e6100cc565b005b34801561005b575f80fd5b5061007660048036038101906100719190610311565b61019a565b005b348015610083575f80fd5b5061008c61026b565b604051610099919061034b565b60405180910390f35b3480156100ad575f80fd5b506100b661028e565b6040516100c3919061034b565b60405180910390f35b5f805f8054906101000a900473ffffffffffffffffffffffffffffffffffffffff1673ffffffffffffffffffffffffffffffffffffffff165f366040516101149291906103a0565b5f60405180830381855af49150503d805f811461014c576040519150601f19603f3d011682016040523d82523d5f602084013e610151565b606091505b509150915081610196576040517f08c379a000000000000000000000000000000000000000000000000000000000815260040161018d90610412565b60405180910390fd5b5050565b60015f9054906101000a900473ffffffffffffffffffffffffffffffffffffffff1673ffffffffffffffffffffffffffffffffffffffff163373ffffffffffffffffffffffffffffffffffffffff1614610229576040517f08c379a00000000000000000000000000000000000000000000000000000000081526004016102209061047a565b60405180910390fd5b805f806101000a81548173ffffffffffffffffffffffffffffffffffffffff021916908373ffffffffffffffffffffffffffffffffffffffff16021790555050565b5f8054906101000a900473ffffffffffffffffffffffffffffffffffffffff1681565b60015f9054906101000a900473ffffffffffffffffffffffffffffffffffffffff1681565b5f80fd5b5f73ffffffffffffffffffffffffffffffffffffffff82169050919050565b5f6102e0826102b7565b9050919050565b6102f0816102d6565b81146102fa575f80fd5b50565b5f8135905061030b816102e7565b92915050565b5f60208284031215610326576103256102b3565b5b5f610333848285016102fd565b91505092915050565b610345816102d6565b82525050565b5f60208201905061035e5f83018461033c565b92915050565b5f81905092915050565b828183375f83830152505050565b5f6103878385610364565b935061039483858461036e565b82840190509392505050565b5f6103ac82848661037c565b91508190509392505050565b5f82825260208201905092915050565b7f64656c656761746563616c6c206661696c6564000000000000000000000000005f82015250565b5f6103fc6013836103b8565b9150610407826103c8565b602082019050919050565b5f6020820190508181035f830152610429816103f0565b9050919050565b7f6e6f7420617574686f72697365640000000000000000000000000000000000005f82015250565b5f610464600e836103b8565b915061046f82610430565b602082019050919050565b5f6020820190508181035f83015261049181610458565b905091905056fea264697066735822122000b556bc4d19248ebf05dd7b4125d087ca2c7b4b876900c76c6ceee3f22953c364736f6c634300081a0033",
					"opcodes": "PUSH1 0x80 PUSH1 0x40 MSTORE CALLVALUE DUP1 ISZERO PUSH1 0xE JUMPI PUSH0 DUP1 REVERT JUMPDEST POP CALLER PUSH1 0x1 PUSH0 PUSH2 0x100 EXP DUP2 SLOAD DUP2 PUSH20 0xFFFFFFFFFFFFFFFFFFFFFFFFFFFFFFFFFFFFFFFF MUL NOT AND SWAP1 DUP4 PUSH20 0xFFFFFFFFFFFFFFFFFFFFFFFFFFFFFFFFFFFFFFFF AND MUL OR SWAP1 SSTORE POP PUSH2 0x4CE DUP1 PUSH2 0x5C PUSH0 CODECOPY PUSH0 RETURN INVALID PUSH1 0x80 PUSH1 0x40 MSTORE PUSH1 0x4 CALLDATASIZE LT PUSH2 0x37 JUMPI PUSH0 CALLDATALOAD PUSH1 0xE0 SHR DUP1 PUSH4 0x3659CFE6 EQ PUSH2 0x50 JUMPI DUP1 PUSH4 0x5C60DA1B EQ PUSH2 0x78 JUMPI DUP1 PUSH4 0xF851A440 EQ PUSH2 0xA2 JUMPI PUSH2 0x46 JUMP JUMPDEST CALLDATASIZE PUSH2 0x46 JUMPI PUSH2 0x44 PUSH2 0xCC JUMP JUMPDEST STOP JUMPDEST PUSH2 0x4E PUSH2 0xCC JUMP JUMPDEST STOP JUMPDEST CALLVALUE DUP1 ISZERO PUSH2 0x5B JUMPI PUSH0 DUP1 REVERT JUMPDEST POP PUSH2 0x76 PUSH1 0x4 DUP1 CALLDATASIZE SUB DUP2 ADD SWAP1 PUSH2 0x71 SWAP2 SWAP1 PUSH2 0x311 JUMP JUMPDEST PUSH2 0x19A JUMP JUMPDEST STOP JUMPDEST CALLVALUE DUP1 ISZERO PUSH2 0x83 JUMPI PUSH0 DUP1 REVERT JUMPDEST POP PUSH2 0x8C PUSH2 0x26B JUMP JUMPDEST PUSH1 0x40 MLOAD PUSH2 0x99 SWAP2 SWAP1 PUSH2 0x34B JUMP JUMPDEST PUSH1 0x40 MLOAD DUP1 SWAP2 SUB SWAP1 RETURN JUMPDEST CALLVALUE DUP1 ISZERO PUSH2 0xAD JUMPI PUSH0 DUP1 REVERT JUMPDEST POP PUSH2 0xB6 PUSH2 0x28E JUMP JUMPDEST PUSH1 0x40 MLOAD PUSH2 0xC3 SWAP2 SWAP1 PUSH2 0x34B JUMP JUMPDEST PUSH1 0x40 MLOAD DUP1 SWAP2 SUB SWAP1 RETURN JUMPDEST PUSH0 DUP1 PUSH0 DUP1 SLOAD SWAP1 PUSH2 0x100 EXP SWAP1 DIV PUSH20 0xFFFFFFFFFFFFFFFFFFFFFFFFFFFFFFFFFFFFFFFF AND PUSH20 0xFFFFFFFFFFFFFFFFFFFFFFFFFFFFFFFFFFFFFFFF AND PUSH0 CALLDATASIZE PUSH1 0x40 MLOAD PUSH2 0x114 SWAP3 SWAP2 SWAP1 PUSH2 0x3A0 JUMP JUMPDEST PUSH0 PUSH1 0x40 MLOAD DUP1 DUP4 SUB DUP2 DUP6 GAS DELEGATECALL SWAP2 POP POP RETURNDATASIZE DUP1 PUSH0 DUP2 EQ PUSH2 0x14C JUMPI PUSH1 0x40 MLOAD SWAP2 POP PUSH1 0x1F NOT PUSH1 0x3F RETURNDATASIZE ADD AND DUP3 ADD PUSH1 0x40 MSTORE RETURNDATASIZE DUP3 MSTORE RETURNDATASIZE PUSH0 PUSH1 0x20 DUP5 ADD RETURNDATACOPY PUSH2 0x151 JUMP JUMPDEST PUSH1 0x60 SWAP2 POP JUMPDEST POP SWAP2 POP SWAP2 POP DUP2 PUSH2 0x196 JUMPI PUSH1 0x40 MLOAD PUSH32 0x8C379A000000000000000000000000000000000000000000000000000000000 DUP2 MSTORE PUSH1 0x4 ADD PUSH2 0x18D SWAP1 PUSH2 0x412 JUMP JUMPDEST PUSH1 0x40 MLOAD DUP1 SWAP2 SUB SWAP1 REVERT JUMPDEST POP POP JUMP JUMPDEST PUSH1 0x1 PUSH0 SWAP1 SLOAD SWAP1 PUSH2 0x100 EXP SWAP1 DIV PUSH20 0xFFFFFFFFFFFFFFFFFFFFFFFFFFFFFFFFFFFFFFFF AND PUSH20 0xFFFFFFFFFFFFFFFFFFFFFFFFFFFFFFFFFFFFFFFF AND CALLER PUSH20 0xFFFFFFFFFFFFFFFFFFFFFFFFFFFFFFFFFFFFFFFF AND EQ PUSH2 0x229 JUMPI PUSH1 0x40 MLOAD PUSH32 0x8C379A000000000000000000000000000000000000000000000000000000000 DUP2 MSTORE PUSH1 0x4 ADD PUSH2 0x220 SWAP1 PUSH2 0x47A JUMP JUMPDEST PUSH1 0x40 MLOAD DUP1 SWAP2 SUB SWAP1 REVERT JUMPDEST DUP1 PUSH0 DUP1 PUSH2 0x100 EXP DUP2 SLOAD DUP2 PUSH20 0xFFFFFFFFFFFFFFFFFFFFFFFFFFFFFFFFFFFFFFFF MUL NOT AND SWAP1 DUP4 PUSH20 0xFFFFFFFFFFFFFFFFFFFFFFFFFFFFFFFFFFFFFFFF AND MUL OR SWAP1 SSTORE POP POP JUMP JUMPDEST PUSH0 DUP1 SLOAD SWAP1 PUSH2 0x100 EXP SWAP1 DIV PUSH20 0xFFFFFFFFFFFFFFFFFFFFFFFFFFFFFFFFFFFFFFFF AND DUP2 JUMP JUMPDEST PUSH1 0x1 PUSH0 SWAP1 SLOAD SWAP1 PUSH2 0x100 EXP SWAP1 DIV PUSH20 0xFFFFFFFFFFFFFFFFFFFFFFFFFFFFFFFFFFFFFFFF AND DUP2 JUMP JUMPDEST PUSH0 DUP1 REVERT JUMPDEST PUSH0 PUSH20 0xFFFFFFFFFFFFFFFFFFFFFFFFFFFFFFFFFFFFFFFF DUP3 AND SWAP1 POP SWAP2 SWAP1 POP JUMP JUMPDEST PUSH0 PUSH2 0x2E0 DUP3 PUSH2 0x2B7 JUMP JUMPDEST SWAP1 POP SWAP2 SWAP1 POP JUMP JUMPDEST PUSH2 0x2F0 DUP2 PUSH2 0x2D6 JUMP JUMPDEST DUP2 EQ PUSH2 0x2FA JUMPI PUSH0 DUP1 REVERT JUMPDEST POP JUMP JUMPDEST PUSH0 DUP2 CALLDATALOAD SWAP1 POP PUSH2 0x30B DUP2 PUSH2 0x2E7 JUMP JUMPDEST SWAP3 SWAP2 POP POP JUMP JUMPDEST PUSH0 PUSH1 0x20 DUP3 DUP5 SUB SLT ISZERO PUSH2 0x326 JUMPI PUSH2 0x325 PUSH2 0x2B3 JUMP JUMPDEST JUMPDEST PUSH0 PUSH2 0x333 DUP5 DUP3 DUP6 ADD PUSH2 0x2FD JUMP JUMPDEST SWAP2 POP POP SWAP3 SWAP2 POP POP JUMP JUMPDEST PUSH2 0x345 DUP2 PUSH2 0x2D6 JUMP JUMPDEST DUP3 MSTORE POP POP JUMP JUMPDEST PUSH0 PUSH1 0x20 DUP3 ADD SWAP1 POP PUSH2 0x35E PUSH0 DUP4 ADD DUP5 PUSH2 0x33C JUMP JUMPDEST SWAP3 SWAP2 POP POP JUMP JUMPDEST PUSH0 DUP2 SWAP1 POP SWAP3 SWAP2 POP POP JUMP JUMPDEST DUP3 DUP2 DUP4 CALLDATACOPY PUSH0 DUP4 DUP4 ADD MSTORE POP POP POP JUMP JUMPDEST PUSH0 PUSH2 0x387 DUP4 DUP6 PUSH2 0x364 JUMP JUMPDEST SWAP4 POP PUSH2 0x394 DUP4 DUP6 DUP5 PUSH2 0x36E JUMP JUMPDEST DUP3 DUP5 ADD SWAP1 POP SWAP4 SWAP3 POP POP POP JUMP JUMPDEST PUSH0 PUSH2 0x3AC DUP3 DUP5 DUP7 PUSH2 0x37C JUMP JUMPDEST SWAP2 POP DUP2 SWAP1 POP SWAP4 SWAP3 POP POP POP JUMP JUMPDEST PUSH0 DUP3 DUP3 MSTORE PUSH1 0x20 DUP3 ADD SWAP1 POP SWAP3 SWAP2 POP POP JUMP JUMPDEST PUSH32 0x64656C656761746563616C6C206661696C656400000000000000000000000000 PUSH0 DUP3 ADD MSTORE POP JUMP JUMPDEST PUSH0 PUSH2 0x3FC PUSH1 0x13 DUP4 PUSH2 0x3B8 JUMP JUMPDEST SWAP2 POP PUSH2 0x407 DUP3 PUSH2 0x3C8 JUMP JUMPDEST PUSH1 0x20 DUP3 ADD SWAP1 POP SWAP2 SWAP1 POP JUMP JUMPDEST PUSH0 PUSH1 0x20 DUP3 ADD SWAP1 POP DUP2 DUP2 SUB PUSH0 DUP4 ADD MSTORE PUSH2 0x429 DUP2 PUSH2 0x3F0 JUMP JUMPDEST SWAP1 POP SWAP2 SWAP1 POP JUMP JUMPDEST PUSH32 0x6E6F7420617574686F7269736564000000000000000000000000000000000000 PUSH0 DUP3 ADD MSTORE POP JUMP JUMPDEST PUSH0 PUSH2 0x464 PUSH1 0xE DUP4 PUSH2 0x3B8 JUMP JUMPDEST SWAP2 POP PUSH2 0x46F DUP3 PUSH2 0x430 JUMP JUMPDEST PUSH1 0x20 DUP3 ADD SWAP1 POP SWAP2 SWAP1 POP JUMP JUMPDEST PUSH0 PUSH1 0x20 DUP3 ADD SWAP1 POP DUP2 DUP2 SUB PUSH0 DUP4 ADD MSTORE PUSH2 0x491 DUP2 PUSH2 0x458 JUMP JUMPDEST SWAP1 POP SWAP2 SWAP1 POP JUMP INVALID LOG2 PUSH5 0x6970667358 0x22 SLT KECCAK256 STOP 0xB5 JUMP 0xBC 0x4D NOT 0x24 DUP15 0xBF SDIV 0xDD PUSH28 0x4125D087CA2C7B4B876900C76C6CEEE3F22953C364736F6C63430008 BYTE STOP CALLER "
				},
				"gasEstimates": {
					"creation": {
						"codeDepositCost": "246000",
						"executionCost": "24550",
						"totalCost": "270550"
					},
					"external": {
						"": "infinite",
						"admin()": "2530",
						"implementation()": "2505",
						"upgradeTo(address)": "26862"
					},
					"internal": {
						"_delegate()": "infinite"
					}
				},
				"methodIdentifiers": {
					"admin()": "f851a440",
					"implementation()": "5c60da1b",
					"upgradeTo(address)": "3659cfe6"
				}
			},
			"storageLayout": {
				"storage": [
					{
						"astId": 33,
						"contract": "TransparentUpgradeableProxy.sol:BuggyProxy",
						"label": "implementation",
						"offset": 0,
						"slot": "0",
						"type": "t_address"
					},
					{
						"astId": 35,
						"contract": "TransparentUpgradeableProxy.sol:BuggyProxy",
						"label": "admin",
						"offset": 0,
						"slot": "1",
						"type": "t_address"
					}
				],
				"types": {
					"t_address": {
						"encoding": "inplace",
						"label": "address",
						"numberOfBytes": "20"
					}
				}
			},
			"userdoc": {
				"kind": "user",
				"methods": {},
				"version": 1
			}
		}
	}
}